{
  "contractName": "CVContract",
  "abi": [
    {
      "constant": true,
      "inputs": [],
      "name": "elementsAreSet",
      "outputs": [
        {
          "internalType": "bool",
          "name": "",
          "type": "bool"
        }
      ],
      "payable": false,
      "stateMutability": "view",
      "type": "function"
    },
    {
      "constant": false,
      "inputs": [
        {
          "internalType": "uint256",
          "name": "x",
          "type": "uint256"
        }
      ],
      "name": "set",
      "outputs": [],
      "payable": false,
      "stateMutability": "nonpayable",
      "type": "function"
    },
    {
      "constant": true,
      "inputs": [],
      "name": "get",
      "outputs": [
        {
          "internalType": "uint256",
          "name": "",
          "type": "uint256"
        }
      ],
      "payable": false,
      "stateMutability": "view",
      "type": "function"
    },
    {
      "constant": true,
      "inputs": [],
      "name": "getAddress",
      "outputs": [
        {
          "internalType": "string",
          "name": "",
          "type": "string"
        }
      ],
      "payable": false,
      "stateMutability": "view",
      "type": "function"
    },
    {
      "constant": true,
      "inputs": [],
      "name": "getDescription",
      "outputs": [
        {
          "internalType": "string",
          "name": "",
          "type": "string"
        }
      ],
      "payable": false,
      "stateMutability": "view",
      "type": "function"
    },
    {
      "constant": true,
      "inputs": [],
      "name": "getTitle",
      "outputs": [
        {
          "internalType": "string",
          "name": "",
          "type": "string"
        }
      ],
      "payable": false,
      "stateMutability": "view",
      "type": "function"
    },
    {
      "constant": true,
      "inputs": [],
      "name": "getAuthor",
      "outputs": [
        {
          "internalType": "string",
          "name": "",
          "type": "string"
        },
        {
          "internalType": "string",
          "name": "",
          "type": "string"
        }
      ],
      "payable": false,
      "stateMutability": "view",
      "type": "function"
    }
  ],
  "bytecode": "0x608060405234801561001057600080fd5b506105ce806100206000396000f3fe608060405234801561001057600080fd5b506004361061007d5760003560e01c80636d4ce63c1161005b5780636d4ce63c146101b65780637e9aef53146101d4578063a5faa125146101f6578063ff3c1a8f146102e55761007d565b80631a0925411461008257806338cc48311461010557806360fe47b114610188575b600080fd5b61008a610368565b6040518080602001828103825283818151815260200191508051906020019080838360005b838110156100ca5780820151818401526020810190506100af565b50505050905090810190601f1680156100f75780820380516001836020036101000a031916815260200191505b509250505060405180910390f35b61010d610388565b6040518080602001828103825283818151815260200191508051906020019080838360005b8381101561014d578082015181840152602081019050610132565b50505050905090810190601f16801561017a5780820380516001836020036101000a031916815260200191505b509250505060405180910390f35b6101b46004803603602081101561019e57600080fd5b81019080803590602001909291905050506103a8565b005b6101be6103b2565b6040518082815260200191505060405180910390f35b6101dc6103bb565b604051808215151515815260200191505060405180910390f35b6101fe610467565b604051808060200180602001838103835285818151815260200191508051906020019080838360005b83811015610242578082015181840152602081019050610227565b50505050905090810190601f16801561026f5780820380516001836020036101000a031916815260200191505b50838103825284818151815260200191508051906020019080838360005b838110156102a857808201518184015260208101905061028d565b50505050905090810190601f1680156102d55780820380516001836020036101000a031916815260200191505b5094505050505060405180910390f35b6102ed6104de565b6040518080602001828103825283818151815260200191508051906020019080838360005b8381101561032d578082015181840152602081019050610312565b50505050905090810190601f16801561035a5780820380516001836020036101000a031916815260200191505b509250505060405180910390f35b606060405180608001604052806052815260200161051c60529139905090565b60606040518060600160405280602c815260200161056e602c9139905090565b8060008190555050565b60008054905090565b600060606103c7610368565b90506000815114156103dd576000915050610464565b6103e56104de565b90506000815114156103fb576000915050610464565b606080610406610467565b915091508192506000835114156104235760009350505050610464565b80925060008351141561043c5760009350505050610464565b610444610388565b925060008351141561045c5760009350505050610464565b600193505050505b90565b6060806040518060400160405280600481526020017f416c6563000000000000000000000000000000000000000000000000000000008152506040518060400160405280601a81526020017f616c65632e63686172626f6e6e65617540676d61696c2e636f6d000000000000815250915091509091565b60606040518060400160405280600d81526020017f53696d706c654578616d706c650000000000000000000000000000000000000081525090509056fe46756c6c2d537461636b20456e67696e65657220657863697465642061626f757420426c6f636b636861696e20616e642069747320706f73736962696c69746965732c206c6574277320636f6e6e6563742168747470733a2f2f7777772e6c696e6b6564696e2e636f6d2f696e2f616c656363686172626f6e6e6561752fa265627a7a72315820bde5058cbf61aaa00842d0a04a8d10cab2483624a6fc867bb375a3e5841f9aa064736f6c634300050c0032",
  "source": "pragma solidity ^0.5.0;\n\nimport \"./CVExtender.sol\";\n\ncontract CVContract is CVExtender {\n\n    uint storedData;\n\n    function set(uint x) public {\n        storedData = x;\n    }\n\n    function get() public view returns (uint) {\n        return storedData;\n    }\n\n    function getAddress() public view returns(string memory) {\n        return \"https://www.linkedin.com/in/aleccharbonneau/\";\n    }\n\n    function getDescription() public view returns(string memory) {\n        return \"Full-Stack Engineer excited about Blockchain and its possibilities, let's connect!\";\n    }\n    function getTitle() public view returns(string memory) {\n        return \"SimpleExample\";\n    }\n    function getAuthor() public view returns(string memory, string memory) {\n        return (\"Alec\", \"alec.charbonneau@gmail.com\");\n    }\n}",
  "sourcePath": "/Users/aleccharbonneau/Desktop/BlockChain/react_test/contracts/CVContract.sol",
  "compiler": {
    "name": "solc",
    "version": "0.5.12+commit.7709ece9.Emscripten.clang"
  },
  "schemaVersion": "3.0.19",
  "updatedAt": "2019-12-21T21:29:51.996Z",
  "networkType": "ethereum",
  "devdoc": {
    "methods": {}
  },
  "userdoc": {
    "methods": {}
  }
}